{
  "_format": "hh-sol-artifact-1",
  "contractName": "CarShareCreditRatingContract",
  "sourceName": "blockchain/contracts/CarShareCreditRatingContract.sol",
  "abi": [
    {
      "anonymous": false,
      "inputs": [
        {
          "indexed": true,
          "internalType": "address",
          "name": "previousOwner",
          "type": "address"
        },
        {
          "indexed": true,
          "internalType": "address",
          "name": "newOwner",
          "type": "address"
        }
      ],
      "name": "OwnershipTransferred",
      "type": "event"
    },
    {
      "anonymous": false,
      "inputs": [
        {
          "indexed": false,
          "internalType": "address",
          "name": "userAddress",
          "type": "address"
        }
      ],
      "name": "getPermission",
      "type": "event"
    },
    {
      "anonymous": false,
      "inputs": [
        {
          "indexed": false,
          "internalType": "bool",
          "name": "proofResult",
          "type": "bool"
        }
      ],
      "name": "noticeRsesult",
      "type": "event"
    },
    {
      "inputs": [
        {
          "internalType": "uint32",
          "name": "_permissionLimitms",
          "type": "uint32"
        }
      ],
      "name": "changePermissionLimitms",
      "outputs": [],
      "stateMutability": "nonpayable",
      "type": "function"
    },
    {
      "inputs": [],
      "name": "getAllUserCreditHistory",
      "outputs": [
        {
          "internalType": "uint16[2][]",
          "name": "",
          "type": "uint16[2][]"
        }
      ],
      "stateMutability": "view",
      "type": "function"
    },
    {
      "inputs": [],
      "name": "getPermissionLimitms",
      "outputs": [
        {
          "internalType": "uint32",
          "name": "",
          "type": "uint32"
        }
      ],
      "stateMutability": "view",
      "type": "function"
    },
    {
      "inputs": [
        {
          "internalType": "uint16",
          "name": "userId",
          "type": "uint16"
        }
      ],
      "name": "getUserAddress",
      "outputs": [
        {
          "internalType": "address",
          "name": "",
          "type": "address"
        }
      ],
      "stateMutability": "view",
      "type": "function"
    },
    {
      "inputs": [
        {
          "internalType": "address",
          "name": "userAddress",
          "type": "address"
        }
      ],
      "name": "getUserCreditHistory",
      "outputs": [
        {
          "internalType": "uint16[2]",
          "name": "",
          "type": "uint16[2]"
        }
      ],
      "stateMutability": "view",
      "type": "function"
    },
    {
      "inputs": [
        {
          "internalType": "address",
          "name": "userAddress",
          "type": "address"
        }
      ],
      "name": "getUserId",
      "outputs": [
        {
          "internalType": "uint16",
          "name": "",
          "type": "uint16"
        }
      ],
      "stateMutability": "view",
      "type": "function"
    },
    {
      "inputs": [],
      "name": "getUserNumber",
      "outputs": [
        {
          "internalType": "uint16",
          "name": "",
          "type": "uint16"
        }
      ],
      "stateMutability": "view",
      "type": "function"
    },
    {
      "inputs": [
        {
          "internalType": "address",
          "name": "userAddress",
          "type": "address"
        }
      ],
      "name": "getUserRentalCount",
      "outputs": [
        {
          "internalType": "uint16",
          "name": "",
          "type": "uint16"
        }
      ],
      "stateMutability": "view",
      "type": "function"
    },
    {
      "inputs": [
        {
          "internalType": "address",
          "name": "userAddress",
          "type": "address"
        }
      ],
      "name": "getUserVerifyCount",
      "outputs": [
        {
          "internalType": "uint16",
          "name": "",
          "type": "uint16"
        }
      ],
      "stateMutability": "view",
      "type": "function"
    },
    {
      "inputs": [
        {
          "internalType": "address",
          "name": "userAddress",
          "type": "address"
        },
        {
          "internalType": "bytes32",
          "name": "hashed_text",
          "type": "bytes32"
        }
      ],
      "name": "givePermission",
      "outputs": [],
      "stateMutability": "nonpayable",
      "type": "function"
    },
    {
      "inputs": [],
      "name": "owner",
      "outputs": [
        {
          "internalType": "address",
          "name": "",
          "type": "address"
        }
      ],
      "stateMutability": "view",
      "type": "function"
    },
    {
      "inputs": [],
      "name": "renounceOwnership",
      "outputs": [],
      "stateMutability": "nonpayable",
      "type": "function"
    },
    {
      "inputs": [
        {
          "internalType": "address",
          "name": "newOwner",
          "type": "address"
        }
      ],
      "name": "transferOwnership",
      "outputs": [],
      "stateMutability": "nonpayable",
      "type": "function"
    },
    {
      "inputs": [
        {
          "internalType": "uint256[2]",
          "name": "a",
          "type": "uint256[2]"
        },
        {
          "internalType": "uint256[2][2]",
          "name": "b",
          "type": "uint256[2][2]"
        },
        {
          "internalType": "uint256[2]",
          "name": "c",
          "type": "uint256[2]"
        },
        {
          "internalType": "uint256[1]",
          "name": "publicInput",
          "type": "uint256[1]"
        },
        {
          "internalType": "string",
          "name": "planeText",
          "type": "string"
        }
      ],
      "name": "tryProof",
      "outputs": [],
      "stateMutability": "nonpayable",
      "type": "function"
    },
    {
      "inputs": [
        {
          "internalType": "uint256[2]",
          "name": "a",
          "type": "uint256[2]"
        },
        {
          "internalType": "uint256[2][2]",
          "name": "b",
          "type": "uint256[2][2]"
        },
        {
          "internalType": "uint256[2]",
          "name": "c",
          "type": "uint256[2]"
        },
        {
          "internalType": "uint256[1]",
          "name": "input",
          "type": "uint256[1]"
        }
      ],
      "name": "verifyProof",
      "outputs": [
        {
          "internalType": "bool",
          "name": "r",
          "type": "bool"
        }
      ],
      "stateMutability": "view",
      "type": "function"
    }
  ],
  "bytecode": "0x60806040526001600360006101000a81548161ffff021916908361ffff160217905550610e10600860006101000a81548163ffffffff021916908363ffffffff16021790555034801561005157600080fd5b50600061006261010560201b60201c565b9050806000806101000a81548173ffffffffffffffffffffffffffffffffffffffff021916908373ffffffffffffffffffffffffffffffffffffffff1602179055508073ffffffffffffffffffffffffffffffffffffffff16600073ffffffffffffffffffffffffffffffffffffffff167f8be0079c531659141344cd1fd0a4f28419497f9722a3daafe3b4186f6b6457e060405160405180910390a35061010d565b600033905090565b612b92806200011d6000396000f3fe608060405234801561001057600080fd5b50600436106100f55760003560e01c8063737a52f111610097578063a604e93f11610066578063a604e93f1461057d578063d277049a146105dd578063d721c7fd1461062b578063f2fde38b14610823576100f5565b8063737a52f1146103e15780638ab58720146104415780638da5cb5b146104b357806397890051146104fd576100f5565b80632b956ff7116100d35780632b956ff7146101d457806343753b4d1461023457806357e6b8ed146103ad578063715018a6146103d7576100f5565b8063017a3dc4146100fa57806320c9ad2c1461012e57806321e3e6fe14610154575b600080fd5b61012c6004803603602081101561011057600080fd5b81019080803563ffffffff169060200190929190505050610867565b005b61013661093a565b604051808261ffff1661ffff16815260200191505060405180910390f35b61015c610955565b60405180806020018281038252838181518152602001915080516000925b818410156101c35782846020026020010151600260200280838360005b838110156101b2578082015181840152602081019050610197565b50505050905001926001019261017a565b925050509250505060405180910390f35b610216600480360360208110156101ea57600080fd5b81019080803573ffffffffffffffffffffffffffffffffffffffff169060200190929190505050610adc565b604051808261ffff1661ffff16815260200191505060405180910390f35b610393600480360361012081101561024b57600080fd5b8101908080604001906002806020026040519081016040528092919082600260200280828437600081840152601f19601f82011690508083019250505050505091929192908060800190600280602002604051908101604052809291906000905b82821015610300578382604002016002806020026040519081016040528092919082600260200280828437600081840152601f19601f820116905080830192505050505050815260200190600101906102ac565b50505050919291929080604001906002806020026040519081016040528092919082600260200280828437600081840152601f19601f820116905080830192505050505050919291929080602001906001806020026040519081016040528092919082600160200280828437600081840152601f19601f8201169050808301925050505050509192919290505050610b33565b604051808215151515815260200191505060405180910390f35b6103b5610d46565b604051808263ffffffff1663ffffffff16815260200191505060405180910390f35b6103df610d60565b005b610423600480360360208110156103f757600080fd5b81019080803573ffffffffffffffffffffffffffffffffffffffff169060200190929190505050610ece565b604051808261ffff1661ffff16815260200191505060405180910390f35b6104716004803603602081101561045757600080fd5b81019080803561ffff169060200190929190505050610f25565b604051808273ffffffffffffffffffffffffffffffffffffffff1673ffffffffffffffffffffffffffffffffffffffff16815260200191505060405180910390f35b6104bb610f6a565b604051808273ffffffffffffffffffffffffffffffffffffffff1673ffffffffffffffffffffffffffffffffffffffff16815260200191505060405180910390f35b61053f6004803603602081101561051357600080fd5b81019080803573ffffffffffffffffffffffffffffffffffffffff169060200190929190505050610f93565b6040518082600260200280838360005b8381101561056a57808201518184015260208101905061054f565b5050505090500191505060405180910390f35b6105bf6004803603602081101561059357600080fd5b81019080803573ffffffffffffffffffffffffffffffffffffffff169060200190929190505050610fe3565b604051808261ffff1661ffff16815260200191505060405180910390f35b610629600480360360408110156105f357600080fd5b81019080803573ffffffffffffffffffffffffffffffffffffffff1690602001909291908035906020019092919050505061103a565b005b610821600480360361014081101561064257600080fd5b8101908080604001906002806020026040519081016040528092919082600260200280828437600081840152601f19601f82011690508083019250505050505091929192908060800190600280602002604051908101604052809291906000905b828210156106f7578382604002016002806020026040519081016040528092919082600260200280828437600081840152601f19601f820116905080830192505050505050815260200190600101906106a3565b50505050919291929080604001906002806020026040519081016040528092919082600260200280828437600081840152601f19601f820116905080830192505050505050919291929080602001906001806020026040519081016040528092919082600160200280828437600081840152601f19601f82011690508083019250505050505091929192908035906020019064010000000081111561079b57600080fd5b8201836020820111156107ad57600080fd5b803590602001918460018302840111640100000000831117156107cf57600080fd5b91908080601f016020809104026020016040519081016040528093929190818152602001838380828437600081840152601f19601f820116905080830192505050505050509192919290505050611201565b005b6108656004803603602081101561083957600080fd5b81019080803573ffffffffffffffffffffffffffffffffffffffff1690602001909291905050506118aa565b005b61086f611a9d565b73ffffffffffffffffffffffffffffffffffffffff1661088d610f6a565b73ffffffffffffffffffffffffffffffffffffffff1614610916576040517f08c379a00000000000000000000000000000000000000000000000000000000081526004018080602001828103825260208152602001807f4f776e61626c653a2063616c6c6572206973206e6f7420746865206f776e657281525060200191505060405180910390fd5b80600860006101000a81548163ffffffff021916908363ffffffff16021790555050565b60006001600360009054906101000a900461ffff1603905090565b60606001600360009054906101000a900461ffff1661ffff1614156109ce57600167ffffffffffffffff8111801561098c57600080fd5b506040519080825280602002602001820160405280156109c657816020015b6109b36129d2565b8152602001906001900390816109ab5790505b509050610ad9565b60606001600360009054906101000a900461ffff160361ffff1667ffffffffffffffff811180156109fe57600080fd5b50604051908082528060200260200182016040528015610a3857816020015b610a256129d2565b815260200190600190039081610a1d5790505b50905060008090505b6001600360009054906101000a900461ffff160361ffff168161ffff161015610ad357610aab600560006001840161ffff1661ffff16815260200190815260200160002060009054906101000a900473ffffffffffffffffffffffffffffffffffffffff16610f93565b828261ffff1681518110610abb57fe5b60200260200101819052508080600101915050610a41565b50809150505b90565b6000600460008373ffffffffffffffffffffffffffffffffffffffff1673ffffffffffffffffffffffffffffffffffffffff16815260200190815260200160002060009054906101000a900461ffff169050919050565b6000610b3d6129f4565b604051806040016040528087600060028110610b5557fe5b6020020151815260200187600160028110610b6c57fe5b602002015181525081600001819052506040518060400160405280604051806040016040528088600060028110610b9f57fe5b6020020151600060028110610bb057fe5b6020020151815260200188600060028110610bc757fe5b6020020151600160028110610bd857fe5b60200201518152508152602001604051806040016040528088600160028110610bfd57fe5b6020020151600060028110610c0e57fe5b6020020151815260200188600160028110610c2557fe5b6020020151600160028110610c3657fe5b60200201518152508152508160200181905250604051806040016040528085600060028110610c6157fe5b6020020151815260200185600160028110610c7857fe5b602002015181525081604001819052506060600167ffffffffffffffff81118015610ca257600080fd5b50604051908082528060200260200182016040528015610cd15781602001602082028036833780820191505090505b50905060008090505b6001811015610d1957848160018110610cef57fe5b6020020151828281518110610d0057fe5b6020026020010181815250508080600101915050610cda565b506000610d268284611aa5565b1415610d3757600192505050610d3e565b6000925050505b949350505050565b6000600860009054906101000a900463ffffffff16905090565b610d68611a9d565b73ffffffffffffffffffffffffffffffffffffffff16610d86610f6a565b73ffffffffffffffffffffffffffffffffffffffff1614610e0f576040517f08c379a00000000000000000000000000000000000000000000000000000000081526004018080602001828103825260208152602001807f4f776e61626c653a2063616c6c6572206973206e6f7420746865206f776e657281525060200191505060405180910390fd5b600073ffffffffffffffffffffffffffffffffffffffff166000809054906101000a900473ffffffffffffffffffffffffffffffffffffffff1673ffffffffffffffffffffffffffffffffffffffff167f8be0079c531659141344cd1fd0a4f28419497f9722a3daafe3b4186f6b6457e060405160405180910390a360008060006101000a81548173ffffffffffffffffffffffffffffffffffffffff021916908373ffffffffffffffffffffffffffffffffffffffff160217905550565b6000600160008373ffffffffffffffffffffffffffffffffffffffff1673ffffffffffffffffffffffffffffffffffffffff16815260200190815260200160002060009054906101000a900461ffff169050919050565b6000600560008361ffff1661ffff16815260200190815260200160002060009054906101000a900473ffffffffffffffffffffffffffffffffffffffff169050919050565b60008060009054906101000a900473ffffffffffffffffffffffffffffffffffffffff16905090565b610f9b6129d2565b610fa36129d2565b6040518060400160405280610fb785610fe3565b61ffff1661ffff168152602001610fcd85610ece565b61ffff1661ffff16815250905080915050919050565b6000600260008373ffffffffffffffffffffffffffffffffffffffff1673ffffffffffffffffffffffffffffffffffffffff16815260200190815260200160002060009054906101000a900461ffff169050919050565b611042611a9d565b73ffffffffffffffffffffffffffffffffffffffff16611060610f6a565b73ffffffffffffffffffffffffffffffffffffffff16146110e9576040517f08c379a00000000000000000000000000000000000000000000000000000000081526004018080602001828103825260208152602001807f4f776e61626c653a2063616c6c6572206973206e6f7420746865206f776e657281525060200191505060405180910390fd5b6110f282611cd9565b80600660008473ffffffffffffffffffffffffffffffffffffffff1673ffffffffffffffffffffffffffffffffffffffff168152602001908152602001600020819055507f83c1cd8a2e431541468908d486383e631692c6614fdde89dfa8a9a8d40cdae1582604051808273ffffffffffffffffffffffffffffffffffffffff1673ffffffffffffffffffffffffffffffffffffffff16815260200191505060405180910390a1600860009054906101000a900463ffffffff1663ffffffff16420163ffffffff16600760008473ffffffffffffffffffffffffffffffffffffffff1673ffffffffffffffffffffffffffffffffffffffff168152602001908152602001600020819055505050565b42600760003373ffffffffffffffffffffffffffffffffffffffff1673ffffffffffffffffffffffffffffffffffffffff168152602001908152602001600020541161124c57600080fd5b806040516020018082805190602001908083835b602083106112835780518252602082019150602081019050602083039250611260565b6001836020036101000a038019825116818451168082178552505050505050905001915050604051602081830303815290604052805190602001206040516020018082815260200191505060405160208183030381529060405280519060200120600660003373ffffffffffffffffffffffffffffffffffffffff1673ffffffffffffffffffffffffffffffffffffffff1681526020019081526020016000205460405160200180828152602001915050604051602081830303815290604052805190602001201461135457600080fd5b3073ffffffffffffffffffffffffffffffffffffffff166343753b4d868686866040518563ffffffff1660e01b81526004018085600260200280838360005b838110156113ae578082015181840152602081019050611393565b505050509050018460026000925b818410156114025782846020020151600260200280838360005b838110156113f15780820151818401526020810190506113d6565b5050505090500192600101926113bc565b9250505083600260200280838360005b8381101561142d578082015181840152602081019050611412565b5050505090500182600160200280838360005b8381101561145b578082015181840152602081019050611440565b5050505090500194505050505060206040518083038186803b15801561148057600080fd5b505afa9250505080156114b457506040513d60208110156114a057600080fd5b810190808051906020019092919050505060015b6115b75761151d6001600260003373ffffffffffffffffffffffffffffffffffffffff1673ffffffffffffffffffffffffffffffffffffffff16815260200190815260200160002060009054906101000a900461ffff1661ffff16611e4090919063ffffffff16565b600260003373ffffffffffffffffffffffffffffffffffffffff1673ffffffffffffffffffffffffffffffffffffffff16815260200190815260200160002060006101000a81548161ffff021916908361ffff1602179055507f34f1cfb3c23ffe9ce4d42be039aeafb2a76cec67d6ff26c3f4c2dde5fde4b2cc6000604051808215151515815260200191505060405180910390a1611839565b801561173d5761162160018060003373ffffffffffffffffffffffffffffffffffffffff1673ffffffffffffffffffffffffffffffffffffffff16815260200190815260200160002060009054906101000a900461ffff1661ffff16611e4090919063ffffffff16565b600160003373ffffffffffffffffffffffffffffffffffffffff1673ffffffffffffffffffffffffffffffffffffffff16815260200190815260200160002060006101000a81548161ffff021916908361ffff1602179055506116df6001600260003373ffffffffffffffffffffffffffffffffffffffff1673ffffffffffffffffffffffffffffffffffffffff16815260200190815260200160002060009054906101000a900461ffff1661ffff16611e4090919063ffffffff16565b600260003373ffffffffffffffffffffffffffffffffffffffff1673ffffffffffffffffffffffffffffffffffffffff16815260200190815260200160002060006101000a81548161ffff021916908361ffff1602179055506117fc565b6117a26001600260003373ffffffffffffffffffffffffffffffffffffffff1673ffffffffffffffffffffffffffffffffffffffff16815260200190815260200160002060009054906101000a900461ffff1661ffff16611e4090919063ffffffff16565b600260003373ffffffffffffffffffffffffffffffffffffffff1673ffffffffffffffffffffffffffffffffffffffff16815260200190815260200160002060006101000a81548161ffff021916908361ffff1602179055505b7f34f1cfb3c23ffe9ce4d42be039aeafb2a76cec67d6ff26c3f4c2dde5fde4b2cc81604051808215151515815260200191505060405180910390a1505b426040516020018082815260200191505060405160208183030381529060405280519060200120600660003373ffffffffffffffffffffffffffffffffffffffff1673ffffffffffffffffffffffffffffffffffffffff168152602001908152602001600020819055505050505050565b6118b2611a9d565b73ffffffffffffffffffffffffffffffffffffffff166118d0610f6a565b73ffffffffffffffffffffffffffffffffffffffff1614611959576040517f08c379a00000000000000000000000000000000000000000000000000000000081526004018080602001828103825260208152602001807f4f776e61626c653a2063616c6c6572206973206e6f7420746865206f776e657281525060200191505060405180910390fd5b600073ffffffffffffffffffffffffffffffffffffffff168173ffffffffffffffffffffffffffffffffffffffff1614156119df576040517f08c379a0000000000000000000000000000000000000000000000000000000008152600401808060200182810382526026815260200180612b376026913960400191505060405180910390fd5b8073ffffffffffffffffffffffffffffffffffffffff166000809054906101000a900473ffffffffffffffffffffffffffffffffffffffff1673ffffffffffffffffffffffffffffffffffffffff167f8be0079c531659141344cd1fd0a4f28419497f9722a3daafe3b4186f6b6457e060405160405180910390a3806000806101000a81548173ffffffffffffffffffffffffffffffffffffffff021916908373ffffffffffffffffffffffffffffffffffffffff16021790555050565b600033905090565b6000807f30644e72e131a029b85045b68181585d2833e84879b9709143e1f593f00000019050611ad3612a27565b611adb611e62565b9050806080015151600186510114611b5b576040517f08c379a00000000000000000000000000000000000000000000000000000000081526004018080602001828103825260128152602001807f76657269666965722d6261642d696e707574000000000000000000000000000081525060200191505060405180910390fd5b611b63612a6e565b6040518060400160405280600081526020016000815250905060008090505b8651811015611c625783878281518110611b9857fe5b602002602001015110611c13576040517f08c379a000000000000000000000000000000000000000000000000000000000815260040180806020018281038252601f8152602001807f76657269666965722d6774652d736e61726b2d7363616c61722d6669656c640081525060200191505060405180910390fd5b611c5382611c4e85608001516001850181518110611c2d57fe5b60200260200101518a8581518110611c4157fe5b6020026020010151612255565b612350565b91508080600101915050611b82565b50611c85818360800151600081518110611c7857fe5b6020026020010151612350565b9050611cbb611c97866000015161246a565b8660200151846000015185602001518587604001518b604001518960600151612504565b611ccb5760019350505050611cd3565b600093505050505b92915050565b6000600460008373ffffffffffffffffffffffffffffffffffffffff1673ffffffffffffffffffffffffffffffffffffffff16815260200190815260200160002060009054906101000a900461ffff1661ffff161415611e3d57600360009054906101000a900461ffff16600460008373ffffffffffffffffffffffffffffffffffffffff1673ffffffffffffffffffffffffffffffffffffffff16815260200190815260200160002060006101000a81548161ffff021916908361ffff1602179055508060056000600360009054906101000a900461ffff1661ffff1661ffff16815260200190815260200160002060006101000a81548173ffffffffffffffffffffffffffffffffffffffff021916908373ffffffffffffffffffffffffffffffffffffffff1602179055506003600081819054906101000a900461ffff168092919060010191906101000a81548161ffff021916908361ffff160217905550505b50565b600081830190508261ffff168161ffff161015611e5957fe5b80905092915050565b611e6a612a27565b60405180604001604052807f098bb42dc06694655a434be679832ee6159bf0ea3ffc9c4d6b516bf65e095ae181526020017f0dbe4a395313fb7c4aef37db00db70c1dd88fe4ffa1a7c2e101fc270137078398152508160000181905250604051806040016040528060405180604001604052807f2ba7694044d3e3ee93dd2664b7912ac918d9a5fb19edb188746beb1e946c9e6081526020017f18fbc3f9ec928f1521b8460d9a019d3c3517f1bcf326a8462ebce02c2626222c815250815260200160405180604001604052807f0dbec2f9651de0b3362aa1e860329148cdafbde870ea74f1249249321ec818b781526020017f29ec8023190a274ad02a47cafed14f974219ef7c2913a8b3f8978cd870d755c88152508152508160200181905250604051806040016040528060405180604001604052807f198e9393920d483a7260bfb731fb5d25f1aa493335a9e71297e485b7aef312c281526020017f1800deef121f1e76426a00665e5c4479674322d4f75edadd46debd5cd992f6ed815250815260200160405180604001604052807f090689d0585ff075ec9e99ad690c3395bc4b313370b38ef355acdadcd122975b81526020017f12c85ea5db8c6deb4aab71808dcb408fe3d1e7690c43d37b4ce6cc0166fa7daa8152508152508160400181905250604051806040016040528060405180604001604052807f0af31cbcd2d855b9580f988176d437409fcfff87cc2fecaa6ac6557ca752795e81526020017f2f4d15ed6eb4d0b27150b48dc5e370802b53e99c3c2157a23b4d54337255bb48815250815260200160405180604001604052807f0d53eadb6fa88cd3d9c22eadedbb4be85ad7ba2d4ea3c3c9bf8137b21bef94a781526020017f261ab864ae45b10c0996393e93543f9dad5a57d4f55fc6f00986bc23bc659a2f8152508152508160600181905250600267ffffffffffffffff8111801561212e57600080fd5b5060405190808252806020026020018201604052801561216857816020015b612155612a6e565b81526020019060019003908161214d5790505b50816080018190525060405180604001604052807f16394d4089d52b9bba12e4460b28f555f53088df6519b1e88c19df0eac67d54581526020017f27210fa4a5ab53fd1528dd859c34ed96e348485c643385a84ad764d5732c4ab781525081608001516000815181106121d757fe5b602002602001018190525060405180604001604052807ed1ea14ae78f5de584351cda60cc355dd2e1401d5fb3d90b1f8794cc3b529a581526020017f2830e10e81894a3d4fbbd77765fb517962baeaa5395f4dc5b279128341a2b686815250816080015160018151811061224757fe5b602002602001018190525090565b61225d612a6e565b612265612a88565b83600001518160006003811061227757fe5b60200201818152505083602001518160016003811061229257fe5b60200201818152505082816002600381106122a957fe5b602002018181525050600060608360808460076107d05a03fa905080600081146122d2576122d4565bfe5b5080612348576040517f08c379a00000000000000000000000000000000000000000000000000000000081526004018080602001828103825260128152602001807f70616972696e672d6d756c2d6661696c6564000000000000000000000000000081525060200191505060405180910390fd5b505092915050565b612358612a6e565b612360612aaa565b83600001518160006004811061237257fe5b60200201818152505083602001518160016004811061238d57fe5b6020020181815250508260000151816002600481106123a857fe5b6020020181815250508260200151816003600481106123c357fe5b602002018181525050600060608360c08460066107d05a03fa905080600081146123ec576123ee565bfe5b5080612462576040517f08c379a00000000000000000000000000000000000000000000000000000000081526004018080602001828103825260128152602001807f70616972696e672d6164642d6661696c6564000000000000000000000000000081525060200191505060405180910390fd5b505092915050565b612472612a6e565b60007f30644e72e131a029b85045b68181585d97816a916871ca8d3c208c16d87cfd479050600083600001511480156124af575060008360200151145b156124d35760405180604001604052806000815260200160008152509150506124ff565b604051806040016040528084600001518152602001828560200151816124f557fe5b0683038152509150505b919050565b60006060600467ffffffffffffffff8111801561252057600080fd5b5060405190808252806020026020018201604052801561255a57816020015b612547612a6e565b81526020019060019003908161253f5790505b5090506060600467ffffffffffffffff8111801561257757600080fd5b506040519080825280602002602001820160405280156125b157816020015b61259e612acc565b8152602001906001900390816125965790505b5090508a826000815181106125c257fe5b602002602001018190525088826001815181106125db57fe5b602002602001018190525086826002815181106125f457fe5b6020026020010181905250848260038151811061260d57fe5b6020026020010181905250898160008151811061262657fe5b6020026020010181905250878160018151811061263f57fe5b6020026020010181905250858160028151811061265857fe5b6020026020010181905250838160038151811061267157fe5b60200260200101819052506126868282612696565b9250505098975050505050505050565b6000815183511461270f576040517f08c379a00000000000000000000000000000000000000000000000000000000081526004018080602001828103825260168152602001807f70616972696e672d6c656e677468732d6661696c65640000000000000000000081525060200191505060405180910390fd5b600083519050600060068202905060608167ffffffffffffffff8111801561273657600080fd5b506040519080825280602002602001820160405280156127655781602001602082028036833780820191505090505b50905060008090505b8381101561290b5786818151811061278257fe5b6020026020010151600001518260006006840201815181106127a057fe5b6020026020010181815250508681815181106127b857fe5b6020026020010151602001518260016006840201815181106127d657fe5b6020026020010181815250508581815181106127ee57fe5b60200260200101516000015160006002811061280657fe5b602002015182600260068402018151811061281d57fe5b60200260200101818152505085818151811061283557fe5b60200260200101516000015160016002811061284d57fe5b602002015182600360068402018151811061286457fe5b60200260200101818152505085818151811061287c57fe5b60200260200101516020015160006002811061289457fe5b60200201518260046006840201815181106128ab57fe5b6020026020010181815250508581815181106128c357fe5b6020026020010151602001516001600281106128db57fe5b60200201518260056006840201815181106128f257fe5b602002602001018181525050808060010191505061276e565b50612914612af2565b6000602082602086026020860160086107d05a03fa905080600081146129395761293b565bfe5b50806129af576040517f08c379a00000000000000000000000000000000000000000000000000000000081526004018080602001828103825260158152602001807f70616972696e672d6f70636f64652d6661696c6564000000000000000000000081525060200191505060405180910390fd5b6000826000600181106129be57fe5b602002015114159550505050505092915050565b6040518060400160405280600290602082028036833780820191505090505090565b6040518060600160405280612a07612a6e565b8152602001612a14612acc565b8152602001612a21612a6e565b81525090565b6040518060a00160405280612a3a612a6e565b8152602001612a47612acc565b8152602001612a54612acc565b8152602001612a61612acc565b8152602001606081525090565b604051806040016040528060008152602001600081525090565b6040518060600160405280600390602082028036833780820191505090505090565b6040518060800160405280600490602082028036833780820191505090505090565b6040518060400160405280612adf612b14565b8152602001612aec612b14565b81525090565b6040518060200160405280600190602082028036833780820191505090505090565b604051806040016040528060029060208202803683378082019150509050509056fe4f776e61626c653a206e6577206f776e657220697320746865207a65726f2061646472657373a2646970667358221220fadade53c36acb467ffa73fe91c94d738226532abdfbf5f673685e793b9b18f264736f6c634300060b0033",
  "linkReferences": {},
  "deployedLinkReferences": {}
}