{
  "_format": "hh-sol-artifact-1",
  "contractName": "CarShareCreditRatingContract",
  "sourceName": "blockchain/contracts/CarShareCreditRatingContract.sol",
  "abi": [
    {
      "anonymous": false,
      "inputs": [
        {
          "indexed": true,
          "internalType": "address",
          "name": "previousOwner",
          "type": "address"
        },
        {
          "indexed": true,
          "internalType": "address",
          "name": "newOwner",
          "type": "address"
        }
      ],
      "name": "OwnershipTransferred",
      "type": "event"
    },
    {
      "anonymous": false,
      "inputs": [
        {
          "indexed": false,
          "internalType": "address",
          "name": "userAddress",
          "type": "address"
        }
      ],
      "name": "getPermission",
      "type": "event"
    },
    {
      "anonymous": false,
      "inputs": [
        {
          "indexed": false,
          "internalType": "bool",
          "name": "proofResult",
          "type": "bool"
        }
      ],
      "name": "noticeRsesult",
      "type": "event"
    },
    {
      "inputs": [],
      "name": "getAllUserCreditHistory",
      "outputs": [
        {
          "internalType": "uint16[2][]",
          "name": "",
          "type": "uint16[2][]"
        }
      ],
      "stateMutability": "view",
      "type": "function"
    },
    {
      "inputs": [
        {
          "internalType": "uint16",
          "name": "userId",
          "type": "uint16"
        }
      ],
      "name": "getUserAddress",
      "outputs": [
        {
          "internalType": "address",
          "name": "",
          "type": "address"
        }
      ],
      "stateMutability": "view",
      "type": "function"
    },
    {
      "inputs": [
        {
          "internalType": "address",
          "name": "userAddress",
          "type": "address"
        }
      ],
      "name": "getUserCreditHistory",
      "outputs": [
        {
          "internalType": "uint16[2]",
          "name": "",
          "type": "uint16[2]"
        }
      ],
      "stateMutability": "view",
      "type": "function"
    },
    {
      "inputs": [
        {
          "internalType": "address",
          "name": "userAddress",
          "type": "address"
        }
      ],
      "name": "getUserId",
      "outputs": [
        {
          "internalType": "uint16",
          "name": "",
          "type": "uint16"
        }
      ],
      "stateMutability": "view",
      "type": "function"
    },
    {
      "inputs": [
        {
          "internalType": "address",
          "name": "userAddress",
          "type": "address"
        }
      ],
      "name": "getUserRentalCount",
      "outputs": [
        {
          "internalType": "uint16",
          "name": "",
          "type": "uint16"
        }
      ],
      "stateMutability": "view",
      "type": "function"
    },
    {
      "inputs": [
        {
          "internalType": "address",
          "name": "userAddress",
          "type": "address"
        }
      ],
      "name": "getUserVerifyCount",
      "outputs": [
        {
          "internalType": "uint16",
          "name": "",
          "type": "uint16"
        }
      ],
      "stateMutability": "view",
      "type": "function"
    },
    {
      "inputs": [
        {
          "internalType": "address",
          "name": "userAddress",
          "type": "address"
        },
        {
          "internalType": "bytes32",
          "name": "hashed_text",
          "type": "bytes32"
        }
      ],
      "name": "givePermission",
      "outputs": [],
      "stateMutability": "nonpayable",
      "type": "function"
    },
    {
      "inputs": [],
      "name": "owner",
      "outputs": [
        {
          "internalType": "address",
          "name": "",
          "type": "address"
        }
      ],
      "stateMutability": "view",
      "type": "function"
    },
    {
      "inputs": [],
      "name": "renounceOwnership",
      "outputs": [],
      "stateMutability": "nonpayable",
      "type": "function"
    },
    {
      "inputs": [
        {
          "internalType": "address",
          "name": "newOwner",
          "type": "address"
        }
      ],
      "name": "transferOwnership",
      "outputs": [],
      "stateMutability": "nonpayable",
      "type": "function"
    },
    {
      "inputs": [
        {
          "internalType": "uint256[2]",
          "name": "a",
          "type": "uint256[2]"
        },
        {
          "internalType": "uint256[2][2]",
          "name": "b",
          "type": "uint256[2][2]"
        },
        {
          "internalType": "uint256[2]",
          "name": "c",
          "type": "uint256[2]"
        },
        {
          "internalType": "uint256[1]",
          "name": "publicInput",
          "type": "uint256[1]"
        },
        {
          "internalType": "string",
          "name": "planeText",
          "type": "string"
        }
      ],
      "name": "tryProof",
      "outputs": [],
      "stateMutability": "nonpayable",
      "type": "function"
    },
    {
      "inputs": [
        {
          "internalType": "uint256[2]",
          "name": "a",
          "type": "uint256[2]"
        },
        {
          "internalType": "uint256[2][2]",
          "name": "b",
          "type": "uint256[2][2]"
        },
        {
          "internalType": "uint256[2]",
          "name": "c",
          "type": "uint256[2]"
        },
        {
          "internalType": "uint256[1]",
          "name": "input",
          "type": "uint256[1]"
        }
      ],
      "name": "verifyProof",
      "outputs": [
        {
          "internalType": "bool",
          "name": "r",
          "type": "bool"
        }
      ],
      "stateMutability": "view",
      "type": "function"
    }
  ],
  "bytecode": "0x60806040526001600360006101000a81548161ffff021916908361ffff16021790555034801561002e57600080fd5b50600061003f6100e260201b60201c565b9050806000806101000a81548173ffffffffffffffffffffffffffffffffffffffff021916908373ffffffffffffffffffffffffffffffffffffffff1602179055508073ffffffffffffffffffffffffffffffffffffffff16600073ffffffffffffffffffffffffffffffffffffffff167f8be0079c531659141344cd1fd0a4f28419497f9722a3daafe3b4186f6b6457e060405160405180910390a3506100ea565b600033905090565b61282d806100f96000396000f3fe608060405234801561001057600080fd5b50600436106100b45760003560e01c80638da5cb5b116100715780638da5cb5b146103ee5780639789005114610438578063a604e93f146104b8578063d277049a14610518578063d721c7fd14610566578063f2fde38b1461075e576100b4565b806321e3e6fe146100b95780632b956ff71461013957806343753b4d14610199578063715018a614610312578063737a52f11461031c5780638ab587201461037c575b600080fd5b6100c16107a2565b60405180806020018281038252838181518152602001915080516000925b818410156101285782846020026020010151600260200280838360005b838110156101175780820151818401526020810190506100fc565b5050505090500192600101926100df565b925050509250505060405180910390f35b61017b6004803603602081101561014f57600080fd5b81019080803573ffffffffffffffffffffffffffffffffffffffff1690602001909291905050506108aa565b604051808261ffff1661ffff16815260200191505060405180910390f35b6102f860048036036101208110156101b057600080fd5b8101908080604001906002806020026040519081016040528092919082600260200280828437600081840152601f19601f82011690508083019250505050505091929192908060800190600280602002604051908101604052809291906000905b82821015610265578382604002016002806020026040519081016040528092919082600260200280828437600081840152601f19601f82011690508083019250505050505081526020019060010190610211565b50505050919291929080604001906002806020026040519081016040528092919082600260200280828437600081840152601f19601f820116905080830192505050505050919291929080602001906001806020026040519081016040528092919082600160200280828437600081840152601f19601f8201169050808301925050505050509192919290505050610901565b604051808215151515815260200191505060405180910390f35b61031a610b14565b005b61035e6004803603602081101561033257600080fd5b81019080803573ffffffffffffffffffffffffffffffffffffffff169060200190929190505050610c82565b604051808261ffff1661ffff16815260200191505060405180910390f35b6103ac6004803603602081101561039257600080fd5b81019080803561ffff169060200190929190505050610cd9565b604051808273ffffffffffffffffffffffffffffffffffffffff1673ffffffffffffffffffffffffffffffffffffffff16815260200191505060405180910390f35b6103f6610d1e565b604051808273ffffffffffffffffffffffffffffffffffffffff1673ffffffffffffffffffffffffffffffffffffffff16815260200191505060405180910390f35b61047a6004803603602081101561044e57600080fd5b81019080803573ffffffffffffffffffffffffffffffffffffffff169060200190929190505050610d47565b6040518082600260200280838360005b838110156104a557808201518184015260208101905061048a565b5050505090500191505060405180910390f35b6104fa600480360360208110156104ce57600080fd5b81019080803573ffffffffffffffffffffffffffffffffffffffff169060200190929190505050610d97565b604051808261ffff1661ffff16815260200191505060405180910390f35b6105646004803603604081101561052e57600080fd5b81019080803573ffffffffffffffffffffffffffffffffffffffff16906020019092919080359060200190929190505050610dee565b005b61075c600480360361014081101561057d57600080fd5b8101908080604001906002806020026040519081016040528092919082600260200280828437600081840152601f19601f82011690508083019250505050505091929192908060800190600280602002604051908101604052809291906000905b82821015610632578382604002016002806020026040519081016040528092919082600260200280828437600081840152601f19601f820116905080830192505050505050815260200190600101906105de565b50505050919291929080604001906002806020026040519081016040528092919082600260200280828437600081840152601f19601f820116905080830192505050505050919291929080602001906001806020026040519081016040528092919082600160200280828437600081840152601f19601f8201169050808301925050505050509192919290803590602001906401000000008111156106d657600080fd5b8201836020820111156106e857600080fd5b8035906020019184600183028401116401000000008311171561070a57600080fd5b91908080601f016020809104026020016040519081016040528093929190818152602001838380828437600081840152601f19601f820116905080830192505050505050509192919290505050610f51565b005b6107a06004803603602081101561077457600080fd5b81019080803573ffffffffffffffffffffffffffffffffffffffff169060200190929190505050611545565b005b606080600360009054906101000a900461ffff1661ffff1667ffffffffffffffff811180156107d057600080fd5b5060405190808252806020026020018201604052801561080a57816020015b6107f761266d565b8152602001906001900390816107ef5790505b50905060008090505b6001600360009054906101000a900461ffff160361ffff168161ffff1610156108a25761087a600560008361ffff1661ffff16815260200190815260200160002060009054906101000a900473ffffffffffffffffffffffffffffffffffffffff16610d47565b828261ffff168151811061088a57fe5b60200260200101819052508080600101915050610813565b508091505090565b6000600460008373ffffffffffffffffffffffffffffffffffffffff1673ffffffffffffffffffffffffffffffffffffffff16815260200190815260200160002060009054906101000a900461ffff169050919050565b600061090b61268f565b60405180604001604052808760006002811061092357fe5b602002015181526020018760016002811061093a57fe5b60200201518152508160000181905250604051806040016040528060405180604001604052808860006002811061096d57fe5b602002015160006002811061097e57fe5b602002015181526020018860006002811061099557fe5b60200201516001600281106109a657fe5b602002015181525081526020016040518060400160405280886001600281106109cb57fe5b60200201516000600281106109dc57fe5b60200201518152602001886001600281106109f357fe5b6020020151600160028110610a0457fe5b60200201518152508152508160200181905250604051806040016040528085600060028110610a2f57fe5b6020020151815260200185600160028110610a4657fe5b602002015181525081604001819052506060600167ffffffffffffffff81118015610a7057600080fd5b50604051908082528060200260200182016040528015610a9f5781602001602082028036833780820191505090505b50905060008090505b6001811015610ae757848160018110610abd57fe5b6020020151828281518110610ace57fe5b6020026020010181815250508080600101915050610aa8565b506000610af48284611738565b1415610b0557600192505050610b0c565b6000925050505b949350505050565b610b1c61196c565b73ffffffffffffffffffffffffffffffffffffffff16610b3a610d1e565b73ffffffffffffffffffffffffffffffffffffffff1614610bc3576040517f08c379a00000000000000000000000000000000000000000000000000000000081526004018080602001828103825260208152602001807f4f776e61626c653a2063616c6c6572206973206e6f7420746865206f776e657281525060200191505060405180910390fd5b600073ffffffffffffffffffffffffffffffffffffffff166000809054906101000a900473ffffffffffffffffffffffffffffffffffffffff1673ffffffffffffffffffffffffffffffffffffffff167f8be0079c531659141344cd1fd0a4f28419497f9722a3daafe3b4186f6b6457e060405160405180910390a360008060006101000a81548173ffffffffffffffffffffffffffffffffffffffff021916908373ffffffffffffffffffffffffffffffffffffffff160217905550565b6000600160008373ffffffffffffffffffffffffffffffffffffffff1673ffffffffffffffffffffffffffffffffffffffff16815260200190815260200160002060009054906101000a900461ffff169050919050565b6000600560008361ffff1661ffff16815260200190815260200160002060009054906101000a900473ffffffffffffffffffffffffffffffffffffffff169050919050565b60008060009054906101000a900473ffffffffffffffffffffffffffffffffffffffff16905090565b610d4f61266d565b610d5761266d565b6040518060400160405280610d6b85610d97565b61ffff1661ffff168152602001610d8185610c82565b61ffff1661ffff16815250905080915050919050565b6000600260008373ffffffffffffffffffffffffffffffffffffffff1673ffffffffffffffffffffffffffffffffffffffff16815260200190815260200160002060009054906101000a900461ffff169050919050565b610df661196c565b73ffffffffffffffffffffffffffffffffffffffff16610e14610d1e565b73ffffffffffffffffffffffffffffffffffffffff1614610e9d576040517f08c379a00000000000000000000000000000000000000000000000000000000081526004018080602001828103825260208152602001807f4f776e61626c653a2063616c6c6572206973206e6f7420746865206f776e657281525060200191505060405180910390fd5b610ea682611974565b80600660008473ffffffffffffffffffffffffffffffffffffffff1673ffffffffffffffffffffffffffffffffffffffff168152602001908152602001600020819055507f83c1cd8a2e431541468908d486383e631692c6614fdde89dfa8a9a8d40cdae1582604051808273ffffffffffffffffffffffffffffffffffffffff1673ffffffffffffffffffffffffffffffffffffffff16815260200191505060405180910390a15050565b806040516020018082805190602001908083835b60208310610f885780518252602082019150602081019050602083039250610f65565b6001836020036101000a038019825116818451168082178552505050505050905001915050604051602081830303815290604052805190602001206040516020018082815260200191505060405160208183030381529060405280519060200120600660003373ffffffffffffffffffffffffffffffffffffffff1673ffffffffffffffffffffffffffffffffffffffff1681526020019081526020016000205460405160200180828152602001915050604051602081830303815290604052805190602001201461105957600080fd5b3073ffffffffffffffffffffffffffffffffffffffff166343753b4d868686866040518563ffffffff1660e01b81526004018085600260200280838360005b838110156110b3578082015181840152602081019050611098565b505050509050018460026000925b818410156111075782846020020151600260200280838360005b838110156110f65780820151818401526020810190506110db565b5050505090500192600101926110c1565b9250505083600260200280838360005b83811015611132578082015181840152602081019050611117565b5050505090500182600160200280838360005b83811015611160578082015181840152602081019050611145565b5050505090500194505050505060206040518083038186803b15801561118557600080fd5b505afa9250505080156111b957506040513d60208110156111a557600080fd5b810190808051906020019092919050505060015b6112bc576112226001600260003373ffffffffffffffffffffffffffffffffffffffff1673ffffffffffffffffffffffffffffffffffffffff16815260200190815260200160002060009054906101000a900461ffff1661ffff16611adb90919063ffffffff16565b600260003373ffffffffffffffffffffffffffffffffffffffff1673ffffffffffffffffffffffffffffffffffffffff16815260200190815260200160002060006101000a81548161ffff021916908361ffff1602179055507f34f1cfb3c23ffe9ce4d42be039aeafb2a76cec67d6ff26c3f4c2dde5fde4b2cc6000604051808215151515815260200191505060405180910390a161153e565b80156114425761132660018060003373ffffffffffffffffffffffffffffffffffffffff1673ffffffffffffffffffffffffffffffffffffffff16815260200190815260200160002060009054906101000a900461ffff1661ffff16611adb90919063ffffffff16565b600160003373ffffffffffffffffffffffffffffffffffffffff1673ffffffffffffffffffffffffffffffffffffffff16815260200190815260200160002060006101000a81548161ffff021916908361ffff1602179055506113e46001600260003373ffffffffffffffffffffffffffffffffffffffff1673ffffffffffffffffffffffffffffffffffffffff16815260200190815260200160002060009054906101000a900461ffff1661ffff16611adb90919063ffffffff16565b600260003373ffffffffffffffffffffffffffffffffffffffff1673ffffffffffffffffffffffffffffffffffffffff16815260200190815260200160002060006101000a81548161ffff021916908361ffff160217905550611501565b6114a76001600260003373ffffffffffffffffffffffffffffffffffffffff1673ffffffffffffffffffffffffffffffffffffffff16815260200190815260200160002060009054906101000a900461ffff1661ffff16611adb90919063ffffffff16565b600260003373ffffffffffffffffffffffffffffffffffffffff1673ffffffffffffffffffffffffffffffffffffffff16815260200190815260200160002060006101000a81548161ffff021916908361ffff1602179055505b7f34f1cfb3c23ffe9ce4d42be039aeafb2a76cec67d6ff26c3f4c2dde5fde4b2cc81604051808215151515815260200191505060405180910390a1505b5050505050565b61154d61196c565b73ffffffffffffffffffffffffffffffffffffffff1661156b610d1e565b73ffffffffffffffffffffffffffffffffffffffff16146115f4576040517f08c379a00000000000000000000000000000000000000000000000000000000081526004018080602001828103825260208152602001807f4f776e61626c653a2063616c6c6572206973206e6f7420746865206f776e657281525060200191505060405180910390fd5b600073ffffffffffffffffffffffffffffffffffffffff168173ffffffffffffffffffffffffffffffffffffffff16141561167a576040517f08c379a00000000000000000000000000000000000000000000000000000000081526004018080602001828103825260268152602001806127d26026913960400191505060405180910390fd5b8073ffffffffffffffffffffffffffffffffffffffff166000809054906101000a900473ffffffffffffffffffffffffffffffffffffffff1673ffffffffffffffffffffffffffffffffffffffff167f8be0079c531659141344cd1fd0a4f28419497f9722a3daafe3b4186f6b6457e060405160405180910390a3806000806101000a81548173ffffffffffffffffffffffffffffffffffffffff021916908373ffffffffffffffffffffffffffffffffffffffff16021790555050565b6000807f30644e72e131a029b85045b68181585d2833e84879b9709143e1f593f000000190506117666126c2565b61176e611afd565b90508060800151516001865101146117ee576040517f08c379a00000000000000000000000000000000000000000000000000000000081526004018080602001828103825260128152602001807f76657269666965722d6261642d696e707574000000000000000000000000000081525060200191505060405180910390fd5b6117f6612709565b6040518060400160405280600081526020016000815250905060008090505b86518110156118f5578387828151811061182b57fe5b6020026020010151106118a6576040517f08c379a000000000000000000000000000000000000000000000000000000000815260040180806020018281038252601f8152602001807f76657269666965722d6774652d736e61726b2d7363616c61722d6669656c640081525060200191505060405180910390fd5b6118e6826118e1856080015160018501815181106118c057fe5b60200260200101518a85815181106118d457fe5b6020026020010151611ef0565b611feb565b91508080600101915050611815565b5061191881836080015160008151811061190b57fe5b6020026020010151611feb565b905061194e61192a8660000151612105565b8660200151846000015185602001518587604001518b60400151896060015161219f565b61195e5760019350505050611966565b600093505050505b92915050565b600033905090565b6000600460008373ffffffffffffffffffffffffffffffffffffffff1673ffffffffffffffffffffffffffffffffffffffff16815260200190815260200160002060009054906101000a900461ffff1661ffff161415611ad857600360009054906101000a900461ffff16600460008373ffffffffffffffffffffffffffffffffffffffff1673ffffffffffffffffffffffffffffffffffffffff16815260200190815260200160002060006101000a81548161ffff021916908361ffff1602179055508060056000600360009054906101000a900461ffff1661ffff1661ffff16815260200190815260200160002060006101000a81548173ffffffffffffffffffffffffffffffffffffffff021916908373ffffffffffffffffffffffffffffffffffffffff1602179055506003600081819054906101000a900461ffff168092919060010191906101000a81548161ffff021916908361ffff160217905550505b50565b600081830190508261ffff168161ffff161015611af457fe5b80905092915050565b611b056126c2565b60405180604001604052807f098bb42dc06694655a434be679832ee6159bf0ea3ffc9c4d6b516bf65e095ae181526020017f0dbe4a395313fb7c4aef37db00db70c1dd88fe4ffa1a7c2e101fc270137078398152508160000181905250604051806040016040528060405180604001604052807f2ba7694044d3e3ee93dd2664b7912ac918d9a5fb19edb188746beb1e946c9e6081526020017f18fbc3f9ec928f1521b8460d9a019d3c3517f1bcf326a8462ebce02c2626222c815250815260200160405180604001604052807f0dbec2f9651de0b3362aa1e860329148cdafbde870ea74f1249249321ec818b781526020017f29ec8023190a274ad02a47cafed14f974219ef7c2913a8b3f8978cd870d755c88152508152508160200181905250604051806040016040528060405180604001604052807f198e9393920d483a7260bfb731fb5d25f1aa493335a9e71297e485b7aef312c281526020017f1800deef121f1e76426a00665e5c4479674322d4f75edadd46debd5cd992f6ed815250815260200160405180604001604052807f090689d0585ff075ec9e99ad690c3395bc4b313370b38ef355acdadcd122975b81526020017f12c85ea5db8c6deb4aab71808dcb408fe3d1e7690c43d37b4ce6cc0166fa7daa8152508152508160400181905250604051806040016040528060405180604001604052807f0af31cbcd2d855b9580f988176d437409fcfff87cc2fecaa6ac6557ca752795e81526020017f2f4d15ed6eb4d0b27150b48dc5e370802b53e99c3c2157a23b4d54337255bb48815250815260200160405180604001604052807f0d53eadb6fa88cd3d9c22eadedbb4be85ad7ba2d4ea3c3c9bf8137b21bef94a781526020017f261ab864ae45b10c0996393e93543f9dad5a57d4f55fc6f00986bc23bc659a2f8152508152508160600181905250600267ffffffffffffffff81118015611dc957600080fd5b50604051908082528060200260200182016040528015611e0357816020015b611df0612709565b815260200190600190039081611de85790505b50816080018190525060405180604001604052807f16394d4089d52b9bba12e4460b28f555f53088df6519b1e88c19df0eac67d54581526020017f27210fa4a5ab53fd1528dd859c34ed96e348485c643385a84ad764d5732c4ab78152508160800151600081518110611e7257fe5b602002602001018190525060405180604001604052807ed1ea14ae78f5de584351cda60cc355dd2e1401d5fb3d90b1f8794cc3b529a581526020017f2830e10e81894a3d4fbbd77765fb517962baeaa5395f4dc5b279128341a2b6868152508160800151600181518110611ee257fe5b602002602001018190525090565b611ef8612709565b611f00612723565b836000015181600060038110611f1257fe5b602002018181525050836020015181600160038110611f2d57fe5b6020020181815250508281600260038110611f4457fe5b602002018181525050600060608360808460076107d05a03fa90508060008114611f6d57611f6f565bfe5b5080611fe3576040517f08c379a00000000000000000000000000000000000000000000000000000000081526004018080602001828103825260128152602001807f70616972696e672d6d756c2d6661696c6564000000000000000000000000000081525060200191505060405180910390fd5b505092915050565b611ff3612709565b611ffb612745565b83600001518160006004811061200d57fe5b60200201818152505083602001518160016004811061202857fe5b60200201818152505082600001518160026004811061204357fe5b60200201818152505082602001518160036004811061205e57fe5b602002018181525050600060608360c08460066107d05a03fa9050806000811461208757612089565bfe5b50806120fd576040517f08c379a00000000000000000000000000000000000000000000000000000000081526004018080602001828103825260128152602001807f70616972696e672d6164642d6661696c6564000000000000000000000000000081525060200191505060405180910390fd5b505092915050565b61210d612709565b60007f30644e72e131a029b85045b68181585d97816a916871ca8d3c208c16d87cfd4790506000836000015114801561214a575060008360200151145b1561216e57604051806040016040528060008152602001600081525091505061219a565b6040518060400160405280846000015181526020018285602001518161219057fe5b0683038152509150505b919050565b60006060600467ffffffffffffffff811180156121bb57600080fd5b506040519080825280602002602001820160405280156121f557816020015b6121e2612709565b8152602001906001900390816121da5790505b5090506060600467ffffffffffffffff8111801561221257600080fd5b5060405190808252806020026020018201604052801561224c57816020015b612239612767565b8152602001906001900390816122315790505b5090508a8260008151811061225d57fe5b6020026020010181905250888260018151811061227657fe5b6020026020010181905250868260028151811061228f57fe5b602002602001018190525084826003815181106122a857fe5b602002602001018190525089816000815181106122c157fe5b602002602001018190525087816001815181106122da57fe5b602002602001018190525085816002815181106122f357fe5b6020026020010181905250838160038151811061230c57fe5b60200260200101819052506123218282612331565b9250505098975050505050505050565b600081518351146123aa576040517f08c379a00000000000000000000000000000000000000000000000000000000081526004018080602001828103825260168152602001807f70616972696e672d6c656e677468732d6661696c65640000000000000000000081525060200191505060405180910390fd5b600083519050600060068202905060608167ffffffffffffffff811180156123d157600080fd5b506040519080825280602002602001820160405280156124005781602001602082028036833780820191505090505b50905060008090505b838110156125a65786818151811061241d57fe5b60200260200101516000015182600060068402018151811061243b57fe5b60200260200101818152505086818151811061245357fe5b60200260200101516020015182600160068402018151811061247157fe5b60200260200101818152505085818151811061248957fe5b6020026020010151600001516000600281106124a157fe5b60200201518260026006840201815181106124b857fe5b6020026020010181815250508581815181106124d057fe5b6020026020010151600001516001600281106124e857fe5b60200201518260036006840201815181106124ff57fe5b60200260200101818152505085818151811061251757fe5b60200260200101516020015160006002811061252f57fe5b602002015182600460068402018151811061254657fe5b60200260200101818152505085818151811061255e57fe5b60200260200101516020015160016002811061257657fe5b602002015182600560068402018151811061258d57fe5b6020026020010181815250508080600101915050612409565b506125af61278d565b6000602082602086026020860160086107d05a03fa905080600081146125d4576125d6565bfe5b508061264a576040517f08c379a00000000000000000000000000000000000000000000000000000000081526004018080602001828103825260158152602001807f70616972696e672d6f70636f64652d6661696c6564000000000000000000000081525060200191505060405180910390fd5b60008260006001811061265957fe5b602002015114159550505050505092915050565b6040518060400160405280600290602082028036833780820191505090505090565b60405180606001604052806126a2612709565b81526020016126af612767565b81526020016126bc612709565b81525090565b6040518060a001604052806126d5612709565b81526020016126e2612767565b81526020016126ef612767565b81526020016126fc612767565b8152602001606081525090565b604051806040016040528060008152602001600081525090565b6040518060600160405280600390602082028036833780820191505090505090565b6040518060800160405280600490602082028036833780820191505090505090565b604051806040016040528061277a6127af565b81526020016127876127af565b81525090565b6040518060200160405280600190602082028036833780820191505090505090565b604051806040016040528060029060208202803683378082019150509050509056fe4f776e61626c653a206e6577206f776e657220697320746865207a65726f2061646472657373a2646970667358221220cd4567f494174d6ddbd7f2c47024f11a1afa76f159739e40cdeb4c31165c71b764736f6c634300060b0033",
  "linkReferences": {},
  "deployedLinkReferences": {}
}